:100000000C947A000C94A2000C94A2000C94A20010
:100010000C94A2000C94A2000C94A2000C94A200D8
:100020000C94A2000C943F050C94A2000C94A20026
:100030000C94A2000C941A050C943D0C0C94A20094
:100040000C94D0040C94A2000C9415040C94EF03AF
:100050000C94A2000C94A2000C94A2000C94A20098
:100060000C94A2000C94A2001B0912094409230954
:100070001F09E8080C09AE0807634236B79BD8A7EA
:100080001A39685618AEBAAB558C1D3CB7CC5763BD
:10009000BD6DEDFD753EF6177231BF000000803F6B
:1000A00000000000240027002A00000000002500B6
:1000B00028002B00040404040404040402020202C5
:1000C000020203030303030301020408102040801B
:1000D000010204081020010204081020000000089A
:1000E00000020100000304070000000000000000FF
:1000F0003315C10D11241FBECFEFD8E0DEBFCDBF39
:1001000025E0AEEEB1E001C01D92A431B207E1F7E7
:1001100011E0A0E0B1E0EAEBF8E302C005900D9237
:10012000AE3EB107D9F710E0C9E7D0E004C021978F
:10013000FE010E94221AC837D107C9F70E94CA0DD2
:100140000C94501C0C940000CF92DF92EF92FF921F
:100150000F931F93CF93DF936C017A018B01C0E063
:10016000D0E0CE15DF0581F0D8016D918D01D6016B
:10017000ED91FC910190F081E02DC6010995892B4C
:1001800011F02196EECF7E01C701DF91CF911F9133
:100190000F91FF90EF90DF90CF900895089580E049
:1001A00090E00895FC01538D448D252F30E0842F7D
:1001B00090E0821B930B541710F0CF96089501978F
:1001C0000895FC01918D828D981761F0828DDF0179
:1001D000A80FB11D5D968C91928D9F5F9F73928F3A
:1001E00090E008958FEF9FEF0895FC01918D828D2F
:1001F000981731F0828DE80FF11D858D90E00895FC
:100200008FEF9FEF0895FC01918D228D892F90E053
:10021000805C9F4F821B91098F739927089584E416
:1002200092E00E94030121E0892B09F420E0822F53
:100230000895FC01848DDF01A80FB11DA35ABF4FA3
:100240002C91848D90E001968F739927848FA689D5
:10025000B7892C93A089B1898C91837080648C9329
:10026000938D848D981306C00288F389E02D8081D8
:100270008F7D80830895EF92FF920F931F93CF930A
:10028000DF93EC0181E0888F9B8D8C8D981305C0E6
:10029000E889F989808185FD26C0F62E0B8D10E056
:1002A0000F5F1F4F0F731127E02E8C8DE8120CC0CB
:1002B0000FB607FCFACFE889F989808185FFF5CF71
:1002C000CE010E941901F1CF8B8DFE01E80FF11DC7
:1002D000E35AFF4FF0829FB7F8940B8FEA89FB89AE
:1002E000808180620AC09FB7F894EE89FF8960839D
:1002F000E889F98980818370806480839FBF81E071
:1003000090E0DF91CF911F910F91FF90EF900895B2
:10031000CF93DF93EC01888D8823C9F0EA89FB89AC
:10032000808185FD05C0A889B9898C9186FD0FC0A3
:100330000FB607FCF5CF808185FFF2CFA889B98978
:100340008C9185FFEDCFCE010E941901E7CFDF919F
:10035000CF910895CF93DF93EC0188819981DC01DF
:10036000ED91FC910190F081E02D09952A813B816E
:10037000820F931F9B838A83DF91CF9108952F92E1
:100380003F924F925F926F927F928F929F92AF9225
:10039000BF92CF92DF92EF92FF920F931F93CF9372
:1003A000DF93CDB7DEB764970FB6F894DEBF0FBE0C
:1003B000CDBF8C012A013B01DC0116960D90BC914A
:1003C000A02DBC8BAB8B14968D919D910D90BC9103
:1003D000A02D8F839887A987BA87F8010084F185BB
:1003E000E02DFA83E983F081FF87A981BA81119614
:1003F000BC91B88BE981FA81F281F98BA981BA812C
:100400001396BC91BA8B9A01AB01F801628173819A
:10041000848195810E94CE176B017C019B01AC0108
:100420006F81788589859A850E94BF16D8011C96B0
:100430002D913D914D915C911F970E94BF162F8584
:10044000388949895A890E94CF176B837C838D83B1
:100450009E83E981FA812481358146815781AB8968
:10046000BC8954966D917D918D919C9157970E9476
:10047000BF164B015C01E981FA81248535854685EB
:100480005785C301B2010E94CE17AB89BC8958962B
:100490002D913D914D915C915B970E94BF16A501F6
:1004A00094010E94CF176B877C878D879E87EB898D
:1004B000FC892081318142815381C701B6010E94AC
:1004C000BF16AB89BC891C962D913D914D915C91D5
:1004D0001F970E94CF172B813C814D815E810E9426
:1004E000CF172B853C854D855E850E94CF174B012C
:1004F0005C01F8010284F385E02DFC8BEB8B2280FC
:100500003380048115819101A8010E94591687FD4D
:1005100017C0AB89BC8916962C90169717963C90FD
:10052000179718960C91189719961C919101A8018C
:10053000B401C5010E944419181614F01401850174
:100540009401A501B101C8010E94CE17A70196012F
:100550000E94BF1620E030E0A9010E94591687FFD3
:1005600008C0BF85BB83E889EC83F989FD838A894C
:100570008E8320E030E0A9016F81788589859A8596
:100580000E945916811104C01B821C821D821E828A
:100590008B819C81AD81BE81E981FA8180839183C9
:1005A000A283B3838B859C85AD85BE85848395832B
:1005B000A683B783C086D186E286F38644865586B5
:1005C00066867786B101C80164960FB6F894DEBFDF
:1005D0000FBECDBFDF91CF911F910F91FF90EF9094
:1005E000DF90CF90BF90AF909F908F907F906F9053
:1005F0005F904F903F902F900895FC0126813781A6
:10060000620F731F848195818617970738F0828166
:10061000938177836683820F931F089580E090E033
:1006200008950E94231CCF93DF93EC018881998168
:100630006115710581F0FB0101900020E9F7319708
:10064000AF01461B570BDC01ED91FC910280F38159
:10065000E02D099502C080E090E02A813B81820F65
:10066000931F9B838A83DF91CF9108950F931F93EC
:10067000CF93DF93CDB7DEB766970FB6F894DEBFA2
:100680000FBECDBF9C01CB011E8AFE0176960AE00B
:1006900010E0B8010E94CD19805D8293CB010097D4
:1006A000C1F7BF01C9010E94130366960FB6F89403
:1006B000DEBF0FBECDBFDF91CF911F910F91089587
:1006C000FF920F931F93CF93DF936115710549F448
:1006D00066E871E0DF91CF911F910F91FF900C942C
:1006E00013038B01EC0162E2CE010E94AA01F80122
:1006F00061918F01662351F0E7E7F1E0F080FF2080
:1007000099F38181681759F03296F8CF62E2CE01F1
:10071000DF91CF911F910F91FF900C94AA016CE58E
:10072000CE010E94AA016F2DDFCFEF92FF920F93AF
:100730001F93CF93DF9300D0CDB7DEB7EE24E394C1
:1007400084E492E00E940301892B59F184E492E051
:100750000E94E100F82E89831A8200910C05109105
:100760000D050F5F1F4FC8010E94C40C882399F02C
:10077000209108053091090580910C0590910D0597
:10078000BE016F5F7F4F820F931F0E943A1C109330
:100790000D0500930C058AE0F812D2CFE092150205
:1007A000CFCF0F900F90DF91CF911F910F91FF90BE
:1007B000EF9008950E940F0181110C949503089504
:1007C00021E03BEF40E85FEB0E94BF160E94B518A6
:1007D00026EB3AED43EF51E40E94BF1608951F92B5
:1007E0000F920FB60F9211242F933F934F935F9365
:1007F0006F937F938F939F93AF93BF93EF93FF93E9
:1008000084E492E00E941901FF91EF91BF91AF91B2
:100810009F918F917F916F915F914F913F912F9118
:100820000F900FBE0F901F9018951F920F920FB64A
:100830000F9211242F938F939F93EF93FF93E09147
:100840005402F09155028081E0915A02F0915B02CE
:1008500082FD12C0908180915D028F5F8F73209125
:100860005E02821751F0E0915D02F0E0EC5BFD4F1B
:10087000958F80935D0201C08081FF91EF919F91E0
:100880008F912F910F900FBE0F901F90189590E0B1
:10089000FC01E452FF4F2491FC01E853FF4F3491D7
:1008A000FC01EC54FF4FE491EE2309F43CC02223F9
:1008B00039F1233091F038F42130A9F0223001F5DC
:1008C00084B58F7D12C0273091F02830A1F02430FC
:1008D000B9F4809180008F7D03C0809180008F7774
:1008E000809380000DC084B58F7784BD09C080914E
:1008F000B0008F7703C08091B0008F7D8093B000EF
:10090000F0E0EE0FFF1FE655FF4FA591B4919FB7A2
:10091000F894611104C08C913095382302C0EC9199
:100920003E2B3C939FBF0895CF93DF9390E0FC0153
:10093000E853FF4F2491FC01EC54FF4F849188232E
:1009400061F190E0880F991FFC01E056FF4FC591BF
:10095000D491FC01E655FF4FA591B491611109C0F6
:100960009FB7F8948881209582238883EC912E2369
:100970000BC0623061F49FB7F8948881322F3095B4
:1009800083238883EC912E2B2C939FBF06C08FB7B7
:10099000F894E8812E2B28838FBFDF91CF910895A3
:1009A0001F920F920FB60F9211242F933F938F93A4
:1009B0009F93AF93BF938091110290911202A091E7
:1009C0001302B091140230910E0223E0230F2D3751
:1009D00020F40196A11DB11D05C026E8230F029643
:1009E000A11DB11D20930E0280931102909312025B
:1009F000A0931302B093140280910A0290910B020B
:100A0000A0910C02B0910D020196A11DB11D809321
:100A10000A0290930B02A0930C02B0930D02BF91B7
:100A2000AF919F918F913F912F910F900FBE0F909B
:100A30001F9018951F920F920FB60F9211242F93AB
:100A40003F934F935F936F937F938F939F93AF9356
:100A5000BF93EF93FF93E0E0F0E00995FF91EF91F2
:100A6000BF91AF919F918F917F916F915F914F91C6
:100A70003F912F910F900FBE0F901F9018951F92CE
:100A80000F920FB60F9211242F933F934F935F93C2
:100A90006F937F938F939F93AF93BF93EF93FF9346
:100AA00080910F028F5F80930F028091100220913E
:100AB0000F0290E0FC01EE0FFF1F8E0F9F1FFC0145
:100AC000E75DFD4F818182130FC08091100290E09D
:100AD000FC01EE0FFF1F8E0F9F1FFC01E75DFD4F16
:100AE00082818093B20065C08091100220910F0234
:100AF00090E0FC01EE0FFF1F8E0F9F1FFC01E75DD2
:100B0000FD4F8181821708F054C08091100290E05F
:100B1000FC01EE0FFF1F8E0F9F1FFC01E75DFD4FD5
:100B2000808185FF10C08091100290E0FC01EE0FE3
:100B3000FF1F8E0F9F1FFC01E75DFD4F808160E06E
:100B40008F710E944704809110028F5F8093100282
:100B500010920F021092B20080911002882319F1B6
:100B6000809110028930F8F48091100290E0FC012D
:100B7000EE0FFF1F8E0F9F1FFC01E75DFD4F808171
:100B800085FF17C08091100290E0FC01EE0FFF1F5F
:100B90008E0F9F1FFC01E75DFD4F808161E08F712B
:100BA0000E94470406C080911002893010F0109214
:100BB0001002FF91EF91BF91AF919F918F917F9123
:100BC0006F915F914F913F912F910F900FBE0F90BA
:100BD0001F901895FC01808191818330910520F44C
:100BE000019708F440C00BC08530910528F00597A7
:100BF00099F5628173812BC082819381089502806F
:100C0000F381E02D309779F18081843779F18B324F
:100C100029F08D3221F4319691E002C0319690E0B6
:100C200060E070E04AE0819120ED280F2A3068F4FE
:100C3000469F9001479F300D1124682F880F770B36
:100C400060537109620F731FEECF992391F08827CB
:100C50009927861B970B0895628173818481958102
:100C60000E94E71806C080E090E0089581E090E0DF
:100C70000895CB0108958F929F92AF92BF92FF92F9
:100C80000F931F93CF93DF93FC0180819181833079
:100C9000910520F4019708F40AC114C0853091052C
:100CA00050F0059709F0F4C06281738184819581C9
:100CB0000E945E16EBC062817381848195810E94DF
:100CC0005E16FDC0C281D381209709F4F0C08881EF
:100CD0008B3229F08D3221F4219611E002C0219649
:100CE00010E08881843709F4D8C08F7D8E3409F4F0
:100CF000D9C0893409F482C0F12C20E030E0A90188
:100D0000FE01099180ED800F8A30E8F42C3C8CECD8
:100D100038078CE048075105A4F4AAE0B0E00E942F
:100D20007D17202F000F330B205331094901330F5A
:100D3000AA08BB08A5019401260F371F481F591F99
:100D4000DFCFF394DDCF0E3221F5EF012196FE01C6
:100D5000099180ED800F8A30E0F42C3C8CEC380750
:100D60008CE0480751059CF7AAE0B0E00E947D178F
:100D7000202F000F330B205331094901330FAA08EC
:100D8000BB08A5019401260F371F481F591FFA946D
:100D9000DECF80818F7DCF2DFF0CDD0B8534E1F51B
:100DA00081818D3219F4329671E006C08B3211F0D8
:100DB000319601C0329670E080E090E00AE06191E7
:100DC000A0EDA60FAA3010F5089FD001099FB00D25
:100DD0001124862F660F990BC0978A0F9B1FDE0187
:100DE000A80FB91F97975CF3772341F0112309F4FB
:100DF0005EC060E070E080E090E861C0112309F41B
:100E00005AC060E070E080E89FEF59C0772331F06E
:100E100091958195910902C080E090E0C80FD91F9B
:100E2000CA01B9010E9460161C161D06ACF400E050
:100E3000C0FF0CC024E0029FF0011124EF5BFE4FC5
:100E400020813181428153810E94BF16D595C7957B
:100E50000F5F209769F718C0D195C195D10900E0BF
:100E6000209791F0C0FF0CC024E0029FF0011124F4
:100E7000E75DFE4F20813181428153810E94BF1680
:100E8000D595C7950F5FECCF1123C9F0905817C0C7
:100E9000628173818481958112C060E070E080E896
:100EA0009FE30DC060E070E080EC9FE708C060E069
:100EB00070E0CB0104C060E070E080E89FE7DF9164
:100EC000CF911F910F91FF90BF90AF909F908F9007
:100ED0000895FC01A081B1818C918D3051F024F4F2
:100EE00089508230B8F505C0803219F08F3219F080
:100EF000089511962CC011968C9111978A3219F091
:100F00008F32D1F008951196B183A083A081B18171
:100F1000CD0101969183808311968C91119788233E
:100F2000C9F08A3299F712968C9112978F3271F725
:100F300013960DC08A3071F2A081B181CD01019666
:100F40009183808311968C918111F4CF03C0B1837A
:100F5000A083C0CF08951F93CF93DF93EC01162F8A
:100F60000E946907E881F9818081181305C03196D4
:100F7000F983E88381E001C080E0DF91CF911F9188
:100F800008950F931F93CF93DF938B01FC01C281D0
:100F9000D3812097A9F06A817B810115110519F091
:100FA0006115710521F46017710731F409C0C8019A
:100FB0000E94311C892B21F00990D881C02DE9CFE6
:100FC000CE01DF91CF911F910F9108950F931F9341
:100FD000CF93DF93EC010C811D8102960E9469077B
:100FE000EA81FB818081873231F1823221F190EDFB
:100FF000980F9A3070F091EA980F9C3150F09FEB67
:10100000980F9A3130F08B3221F093ED980F923097
:10101000F0F52A813B812F5F3F4F3B832A83EC8190
:10102000FD819F012F5F3F4F3D832C838083EA81A9
:10103000FB818081DCCF3196FB83EA83EA81FB81EF
:101040009081992321F19F012F5F3F4F3B832A839A
:101050009817E9F09C3591F49181ABE7B1E02C91C0
:10106000222339F0921303C011969C9102C012966C
:10107000F6CF992361F03296FB83EA83EC81FD8100
:101080009F012F5F3F4F3D832C839083D7CFEC810F
:10109000FD81CF0101969D838C831082C801DF9171
:1010A000CF911F910F9108950F931F93CF93DF93CB
:1010B0008C01EB016BE7CE010E94AA01F8010281CD
:1010C000138101151105D1F0F80162817381CE0100
:1010D0000E9460036AE3CE010E94AA01BE01C8011A
:1010E00004960E948608F8010081118101151105FE
:1010F00029F06CE2CE010E94AA01E3CF6DE7CE0198
:10110000DF91CF911F910F910C94AA012F923F92E2
:101110004F925F926F927F928F929F92AF92BF9207
:10112000CF92DF92EF92FF920F931F93CF93DF93B3
:10113000CDB7DEB76C970FB6F894DEBF0FBECDBF4C
:10114000DC01ED91FC913197E830F10508F038C2EF
:101150001B018C01EC5CFF4F0C94221AFC01828075
:101160009380A480B580A5019401C501B4010E94BB
:101170005916882319F066E971E094C020E030E048
:10118000A901C501B4010E94591687FF08C06DE28C
:10119000C1010E94AA01B7FAB094B7F8B09420E058
:1011A00030E0A901C501B4010E945916882309F451
:1011B0007DC0A5019401C501B4010E94CF17A5010E
:1011C00094010E945916811171C06DE971E06AC0E5
:1011D000DC0112960D911C9113976BE5C1010E94E1
:1011E000AA01F801028113810115110581F0B101F5
:1011F000C80102960E948608D8010D911C91011524
:10120000110529F06CE2C1010E94AA01EDCF6DE544
:10121000C1010E94AA01D4C1FC01828193810E9474
:101220005408CEC1DC0112966D917C911397C101D7
:101230000E946003C5C1FC016281738133C06DE20D
:10124000C1010E94AA01D80112966D917D918D91E4
:101250009C9115971E8A8E010A5E1F4F2AE0C22EAE
:10126000D12CE12CF12CA70196010E94E119605DBF
:10127000F80162938F01B901CA01611571058105F9
:10128000910589F7BF010EC0FC0182819381A48181
:10129000B581892B8A2B8B2B19F460E971E002C090
:1012A0006BE871E0C1010E9413038AC120E836E9AE
:1012B00048E15BE4C501B4010E94441987FF4AC1BB
:1012C00000E210E0E5E0DE2E188E1F8A20E030E01C
:1012D000A901C501B4010E9444191816B4F52CEAFD
:1012E00035EC47E257E3C501B4010E9459161816C0
:1012F00064F1BFEFDB1649F1ED2DF4E0EF02700170
:101300001124F701EF5EFE4FA50194016081718108
:10131000828193810E94441918169CF4F701EF5BB7
:10132000FE4F2081318142815381C501B4010E9469
:10133000BF164B015C018F89988D801B910B988F94
:101340008F8B15950795DA94D4CFC501B4010E940F
:10135000EE186B017C012B013C0106E080E492E475
:10136000AFE0B0E0898F9A8FAB8FBC8F102F015008
:101370009AE04916510461047104C8F0698D7A8DB0
:101380008B8D9C8D2AE030E040E050E00E94E11916
:10139000298F3A8F4B8F5C8FC301B2012AE030E076
:1013A00040E050E00E94E11929013A01DFCFC70176
:1013B000B6010E945E169B01AC01C501B4010E94FA
:1013C000CE174B015C01698D7A8D8B8D9C8D0E94AF
:1013D0005E169B01AC01C501B4010E94BF162B0132
:1013E0003C010E94EE184B015C010E945E169B01BD
:1013F000AC01C301B2010E94CE179B01AC010E9457
:10140000CF170E94EE18860E971EA81EB91E898D52
:101410009A8DAB8DBC8D88169906AA06BB06F8F08E
:101420009FEFC91AD90AE90AF90AAF89B88DAB2B1F
:1014300099F0BAE0CB16D104E104F10468F0EF8929
:10144000F88D3196F88FEF8B812C912C5401C12CA3
:10145000D12C7601C39403C0812C912C54015AE005
:10146000452E512C612C712CC501B401A3019201B0
:101470000E94E119672B682B692B31F4111624F4B3
:1014800049015A011150F0CF1E8ACE0146969A8F1B
:10149000898F4AE0442E512C612C712CC701B60172
:1014A000A30192010E94E119605DA98DBA8D6E932E
:1014B000BA8FA98F69017A01C114D104E104F10442
:1014C00069F7BD01C1010E941303112329F1188A94
:1014D000012F6E01B0E1CB0ED11C76013AE0432E14
:1014E000512C612C712C015068F0C501B401A3018D
:1014F00092010E94E119605DF60162936F0149015A
:101500005A01F1CFB701611B71098EE2DB018E93A5
:10151000BD01C1010E941303EF89F88DF7FF0BC0D5
:101520006AE971E0C1010E9413036F89788D71959A
:10153000619571090BC08F89988D892B09F440C082
:1015400065E6C1010E94AA016F89788DC1010E94E0
:10155000360336C089E5C82E81E0D82E99E2E92EFF
:1015600091E0F92E00E210E0188E1F8AA501940187
:10157000D6019E918E917E916E916D010E945916B9
:1015800018168CF0F7012489358946895789C501D9
:10159000B4010E94BF164B015C018F89988D800FAA
:1015A000911F988F8F8B1595079594E0E91AF10894
:1015B000A1E4CA16A1E0DA06C9F6DD24DA9486CEE3
:1015C0006C960FB6F894DEBF0FBECDBFDF91CF9102
:1015D0001F910F91FF90EF90DF90CF90BF90AF9051
:1015E0009F908F907F906F905F904F903F902F9043
:1015F00008950E94C10708950E94F90A009719F002
:1016000004960C94EA0580E090E008950E94F90A9F
:1016100021E0892B09F420E0822F089580910202B5
:1016200081110BC01092FF011092FE011092010275
:101630001092000281E0809302028EEF91E0089503
:101640008091F60181110BC01092F3011092F2010A
:101650001092F5011092F40181E08093F60182EF7F
:1016600091E008950E94F90A009749F0FC01248155
:1016700035812630310519F48681978108950C94BF
:10168000200BDB01109749F0ED91FC91119701902F
:10169000F081E02DBC01CD01099480E090E0089537
:1016A000CF93DF93EC01688179818AE090E00E941A
:1016B000410B009729F0FC011182108215821482DF
:1016C000EA81FB81309751F020813181211531056C
:1016D00011F0F901F9CF9183808302C09B838A8343
:1016E000DF91CF9108950F931F93CF93DF93EC0178
:1016F0008B016881798188E090E00E94410BDC01D8
:10170000892B39F011961C921E9213961C921E92F0
:101710001297EA81FB81309749F08081918100978F
:1017200011F0FC01FACFB183A08302C0BB83AA836E
:10173000109749F086E0F801129601900D928A9573
:10174000E1F781E001C080E0DF91CF911F910F911F
:101750000895CF93DF93EC01BC0184E090E00E94F8
:10176000410B009741F0FC01D183C08313821282A8
:10177000DF91CF910895DF91CF910C940E0BAF9232
:10178000BF92CF92DF92EF92FF920F931F93CF936E
:10179000DF9300D000D000D0CDB7DEB77C01FC01D4
:1017A0008681882309F456C08150F7018683819190
:1017B00091916F010E94A90B8C016BE7C6010E94F9
:1017C000AB07882309F446C06DE7C6010E94AB074A
:1017D00081113AC0C7010E94E6075C01892BD1F153
:1017E0006AE3C6010E94AB078823A1F11A8219821D
:1017F000BE016F5F7F4FC7010E94160D882351F114
:10180000B501C8010E94C107009741F4C8010E94B8
:10181000500B0097F9F0FC01B382A28226E0FE0192
:101820003196DC01149601900D922A95E1F76DE74F
:10183000C6010E94AB07811107C06CE2C6010E947D
:10184000AB078111C7CF06C0F70186818F5F868302
:10185000C80102C00E940E0B26960FB6F894DEBF98
:101860000FBECDBFDF91CF911F910F91FF90EF90F1
:10187000DF90CF90BF90AF9008951F920F920FB658
:101880000F9211240F931F932F933F934F935F93C6
:101890006F937F938F939F93AF93BF932FB7F894DA
:1018A0008091110290911202A0911302B091140242
:1018B0002FBF4091EE015091EF016091F0017091C6
:1018C000F1018C019D01041B150B260B370B043114
:1018D00011052105310558F08093EE019093EF0139
:1018E000A093F001B093F10181E080931602BF91C3
:1018F000AF919F918F917F916F915F914F913F91A8
:101900002F911F910F910F900FBE0F901F90189560
:10191000CF93DF93EC01BC0184E090E00E94410B87
:10192000009741F0FC01D183C08313821282DF91C2
:10193000CF910895DF91CF910C94200BE0910E058B
:101940002FEF2E0F2830F8F48E3E22E092073CF065
:101950008B3C28E092072CF08AEC98E002C08EEED7
:1019600092E00897F0E09C01220F232F221F330BF7
:10197000AF01440F551FE40FF51FE75DFD4F2183B5
:10198000880F809582830895CF93DF93EC01809137
:10199000080590910905009739F020910A053091CA
:1019A0000B052C173D07B8F4BE016F5F7F4F0E94F7
:1019B0005D1B009791F09093090580930805D093E3
:1019C0000B05C0930A0520910C0530910D05232BC2
:1019D00011F4FC01108281E001C080E0DF91CF9121
:1019E00008950F931F93CF93DF93EC018B016AEE61
:1019F00071E00E94C107009751F4CE010E94500B84
:101A0000009771F02AEE31E0FC013383228322E05B
:101A100030E0FC01358324831783068381E001C015
:101A200080E0DF91CF911F910F910895AF92BF9207
:101A3000CF92DF92EF92FF920F931F93CF93DF939A
:101A400000D000D000D0CDB7DEB78C016B017C0197
:101A500082E0E80EF11CC7010E946907D8011296C6
:101A6000ED91FC91139780818B3521F08B3709F430
:101A700049C053C0F80186818823C1F18150868313
:101A8000808191810E94880C5C016BE5C7010E94F6
:101A9000AB07882359F16DE5C7010E94AB0781119F
:101AA0001FC01A821982BE016F5F7F4FC8010E945A
:101AB000160D8823D9F0BE016F5F7F4FC5010E94CC
:101AC000730B882399F06DE5C7010E94AB07811164
:101AD00007C06CE2C7010E94AB078111E2CF06C0CC
:101AE000F80186818F5F8683C50102C00E94200BAA
:101AF000DC012D913C91232B11F4F12C30C026E018
:101B000030E026C0C8010E94BF0BDC012D913C9142
:101B1000232B99F327E030E01BC0FF24F394873296
:101B200019F0823209F0F12CC8010E94E6070097F3
:101B300021F3FF2059F022E030E0D60111963C93CA
:101B40002E9313969C938E93129709C021E030E058
:101B5000F6013183208393838283FF24F3948F2DB6
:101B600026960FB6F894DEBF0FBECDBFDF91CF91A2
:101B70001F910F91FF90EF90DF90CF90BF90AF90AB
:101B800008958091080590910905009711F00C9433
:101B9000D41A0895CF93DF93CDB7DEB7C85AD1409A
:101BA0000FB6F894DEBF0FBECDBF789484B58260C7
:101BB00084BD84B5816084BD85B5826085BD85B5F1
:101BC000816085BD80916E00816080936E0010926F
:101BD00081008091810082608093810080918100EA
:101BE000816080938100809180008160809380007B
:101BF0008091B10084608093B1008091B0008160D9
:101C00008093B00080917A00846080937A00809104
:101C10007A00826080937A0080917A00816080935C
:101C20007A0080917A00806880937A001092C100D7
:101C30008FEA87BD80916E00826080936E00E09194
:101C40005402F091550282E08083E0915002F091BD
:101C500051021082E0915202F091530280E18083A0
:101C600010925C02E0915802F091590286E0808364
:101C7000E0915602F0915702808180618083E0916B
:101C80005602F0915702808188608083E09156026D
:101C9000F0915702808180688083E0915602F09134
:101CA000570280818F7D808388EC90E00E94C40C75
:101CB00080911702811122C0E9E2F2E081E492E012
:101CC0003BE027E53483258333968E179F07D1F7B2
:101CD0008EE380932A021092100210920F0210924B
:101CE00070001092B00082E08093B1001092B200B8
:101CF00081E087BB809370008093170280910E056E
:101D0000882399F061E083E00E949404E0910E053D
:101D1000F0E0CF01880F991FE80FF91FE75DFD4F35
:101D20008081807E8360806280838AE590E00E946B
:101D30009E0C61E089E00E94940460E082E00E94D1
:101D4000940483E190E09093E2028093E10280EEBC
:101D500093E09093FE028093FD0289E090E09093DF
:101D600001018093000120E030E0A90160910601AB
:101D70007091070180910801909109010E94591604
:101D800087FD08C010920201109203011092040115
:101D90001092050120E030E040E85FE3609102012D
:101DA0007091030180910401909105010E944419F2
:101DB000181664F080E090E0A0E8BFE3809306018D
:101DC00090930701A0930801B093090180E091E08E
:101DD00090930A038093090380E090E0A0EAB1E4C5
:101DE0008093010390930203A0930303B093040331
:101DF0001E0129EC220E311CAE014A5D5F4FC35615
:101E0000DE4F59834883CD59D140C1010896C95549
:101E1000DE4F99838883C75AD14080911602882368
:101E200009F404C2109216028091E1028E3008F08B
:101E30008E508770806480937C0080917A008064EB
:101E400080937A0080917A0086FDFCCF60917800C3
:101E5000809179000091FB021091FC029801220F01
:101E6000331F220F331FD901AF51BD4F7D0170E0E9
:101E7000782B072E000C880B990B0E94601620E02F
:101E800030E040EA50E40E94BF1620E030E040E835
:101E90005AE30E94BF16F701668377838087918794
:101EA000C801019665E070E00E94CD199093FC0294
:101EB0008093FB02809121028F5F80932102909199
:101EC0000A018917F0F1109221021092E302109298
:101ED000E4021092E5021092E60207EE12E060E0E2
:101EE00070E0CB01D8012D913D914D915D918D0117
:101EF0000E94CF17B2E00B3F1B07A1F76093E302EC
:101F00007093E4028093E5029093E60220E030E0D3
:101F100040EA50E40E943B1860931D0270931E0239
:101F200080931F0290932002E091FD02F091FE0247
:101F300009956093190270931A0280931B02909383
:101F40001C02809118028F5F853018F4809318026C
:101F50005AC11092180280912202882349F04090C1
:101F600023025090240260902502709026020EC039
:101F70004091190250911A0260911B0270911C024B
:101F80008FEF92E00E94BF012B013C018090020183
:101F90009090030100910401109105019401A801A2
:101FA000B201C3010E94591687FD12C0809006013C
:101FB0009090070100910801109109019401A80176
:101FC000B201C3010E944419181614F042018301A2
:101FD00020E030E04FE753E4B401C8010E94BF168F
:101FE0000E94E7186B017C01C156DE4F798368833C
:101FF000CF59D140A0900001B090010161E08A2D3D
:102000000E949404C156DE4FE881F981CF59D14036
:10201000EF2B09F453C0C156DE4F28813981CF59C7
:10202000D1402F3F310509F44BC0F501FF27E452A1
:10203000FF4FE491E330F9F048F4E130B9F0E230D9
:10204000A1F584B5806284BDC8BC3EC0E730E9F02C
:10205000E83019F1E43049F5809180008062809386
:102060008000D0928B00C0928A002EC084B5806818
:1020700084BDC7BC29C080918000806880938000A7
:10208000D0928900C09288001FC08091B000806803
:102090008093B000C092B30017C08091B0008062FE
:1020A0008093B000C092B4000FC0C156DE4F48818B
:1020B0005981CF59D1404038510514F460E001C036
:1020C00061E08A2D0E944704E0910703F091080324
:1020D0004091010350910203609103037091040346
:1020E000D1014D935D936D937C93139740911D02A5
:1020F00050911E0260911F027091200214964D9320
:102100005D936D937C9317974091190250911A0239
:1021100060911B0270911C0218964D935D936D9314
:102120007C931B97A201B3011C964D935D936D9315
:102130007C931F97A401B80150964D935D936D93C6
:102140007C935397408151816281738154964D9362
:102150005D936D937C935797448155816681778118
:1021600058964D935D936D937C935B978085918595
:10217000A285B385F101848F958FA68FB78F8FB716
:10218000F8944091110250911202609113027091E3
:1021900014028FBFD101FE0136960D911D912D9134
:1021A0003D910193119321933193C356DE4F2881C2
:1021B0003981CD59D1402E173F0779F780913003EF
:1021C0009091310321E029834A835B836C837D8373
:1021D00028E030E03FA72EA72FE2289FD001299FBB
:1021E000B00D1124AE5CBC4FFE01319601900D92F2
:1021F0002A95E1F701966AE070E00E94CD1990936C
:102200003103809330038091270290912802009738
:1022100019F08233910529F41092280210922702B6
:1022200005C00196909328028093270280912E0387
:1022300090912F032091300330913103821793073F
:1022400009F4CFC04FE2489F9001499F300D1124FF
:10225000F901EE5CFC4FDE01A959BE4F01900D92D1
:102260004A95E1F7F901EE5CFC4FD0804180528045
:102270006380748085A496A401966AE070E00E9451
:10228000CD1990932F0380932E0349E050E04C0F1B
:102290005D1F5C834B8384E690E09E838D8318866C
:1022A0001F828DE591E09A838983CE0101960E9479
:1022B000A90B8C0166EA71E00E94C107009761F4E6
:1022C000C8010E94500B009781F026EA31E0DC0142
:1022D00013963C932E93129724E030E0FC01358353
:1022E00024834682578260867186F80180819181BD
:1022F000009721F40E94200B3C012CC00E94880C06
:102300007C0164EA71E0C8010E94C107009761F492
:10231000C8010E94500B0097E1F024EA31E0DC0193
:1023200013963C932E931297F7012081318121154A
:10233000310519F440E050E003C0970146E050E059
:10234000DC0115965C934E93149717963C932E934D
:1023500016973701DD20A1F060EB71E0C8010E9403
:10236000F10C97E6C92EDD24D394CC0EDD1EB5E02A
:10237000CB0ED11CE12CF12C28E0A22EB12C03C0F5
:1023800063EE71E0EBCFE814F904ACF4F60181914F
:102390009191A191B1916F01F101B182A0828283EB
:1023A0009383A483B583B101C3010E94730BFFEF34
:1023B000EF1AFF0AE8CF84E492E0D10111969C93D2
:1023C0008E9313961C921E921297B101C8010E941F
:1023D000540842E050E06BEB71E084E492E00E942C
:1023E000A40080911502882309F436C300910C05DE
:1023F00010910D0501151105B1F0C8010197801765
:10240000910708F48C016091080570910905A801F5
:10241000CE0101960E94411CE1E0F0E0EC0FFD1FAF
:10242000E00FF11F1082C955DE4F28813981C75A4C
:10243000D140F1013383228386E990E09583848340
:10244000178216828DE591E091838083CA56DE4F14
:1024500039822882C659D14041E050E04C0F5D1FBF
:10246000C856DE4F59834883C859D140C656DE4FFF
:1024700059834883CA59D1408AE0C456DE4F8883C5
:10248000CC59D140CE018A569E4F0E94BF0B8C0181
:102490006EEB71E00E94060B8823C9F06EEB71E0D1
:1024A000C8010E94F90A009721F004960E943B0699
:1024B00003C060E070E0CB016093140370931503D8
:1024C000809316039093170381E080932C0367ECAD
:1024D00071E0C8010E94060B882309F468C067EC0C
:1024E00071E0C8010E94320BDC011296ED91FC9163
:1024F0001397E12CF12C309739F0BFEFEB1AFB0A60
:102500000190F081E02DF7CF67EC71E0C8010E94E7
:10251000F90A009749F0FC01248135812730310503
:1025200019F48681978102C00E940E0BDC0112967D
:10253000ED91FC91139780E090E0309729F001969F
:102540000190F081E02DF9CFE80EF91EF89488E1B2
:10255000882E83E0982EC12CD12CCE14DF041CF5DC
:10256000560167EC71E0C8010E94320BFC018281C8
:102570009381009759F0A114B10409F470C2DC01F1
:102580008D919C91B1E0AB1AB108F3CF60E070E09F
:10259000CB01F40161937193819391934F01FFEF0C
:1025A000CF1ADF0ADACF789481E080932D036EECA6
:1025B00071E0C8010E94060B882371F16EEC71E096
:1025C000C8010E94FC0ABC01990F880B990B0E945C
:1025D000601620E030E041E654E40E94BF1620E09F
:1025E00030E044EB52E40E943B1820E030E84BE33B
:1025F00054E40E94CF170E94E7186E3E22E0720753
:102600003CF0CB01633776402CF082E796E002C0C5
:102610008EEE92E00E949E0C64ED71E0C8010E9473
:10262000060B8823D1F064ED71E0C8010E94FC0A1A
:10263000823E9F4F64F064ED71E0C8010E94FC0A85
:102640004F972CF464ED71E0C8010E94FC0A81E010
:1026500090E0909328028093270269ED71E0C80111
:102660000E94060B8823B1F069ED71E0C8010E9459
:10267000F90A009721F004960E943B0603C060E02F
:1026800070E0CB01609323027093240280932502B3
:10269000909326026BED71E0C8010E94060B88231F
:1026A00081F06BED71E0C8010E94F90A009731F0EA
:1026B00004960E94EA0521E0892B09F420E020938A
:1026C000220262EE71E0C8010E94060B882309F421
:1026D00076C062EE71E0C8010E94F90AFC01892B04
:1026E00009F45AC0848195818330910520F40197C3
:1026F00008F452C012C08530910550F0059709F0DA
:1027000044C086819781A085B1859C01AD0135C00B
:1027100066817781808591854AC00680F781E02DAA
:102720003097D1F180818437D9F18B3229F08D3205
:1027300021F4319611E002C0319610E020E030E043
:10274000A901019180ED800F8A30A8F4AAE0B0E0E1
:102750000E947D17402F000F550B9A01205331091D
:102760006901330FEE08FF08A7019601260F371FF6
:10277000481F591FE6CF1123C1F066277727CB01E9
:10278000621B730B840B950B12C066817781808569
:1027900091850E94E7180BC060E070E0CB0107C094
:1027A00061E070E080E090E002C0CA01B90120E27F
:1027B0003EE440E050E00E94031A20930A01809119
:1027C0002C03882391F010922C0380911403909194
:1027D0001503A0911603B091170380930103909302
:1027E0000203A0930303B093040380912D03882375
:1027F00009F40AC110922D030091050310910603FC
:1028000020E030E040E451E4609118037091190336
:1028100080911A0390911B030E943B186B017C016D
:10282000D8016D937D938D939C93139720E030E0B6
:1028300040E451E460911C0370911D0380911E03DC
:1028400090911F030E943B18F8016483758386836F
:10285000978320E030E040E451E4609120037091E0
:10286000210380912203909123030E943B182B01A6
:102870003C01D80118966D937D938D939C931B9783
:1028800020E030E040E451E460912403709125039E
:1028900080912603909127030E943B18F8016487DA
:1028A0007587868797878090280390902903A0904A
:1028B0002A03B0902B0320E030E0A901C501B40148
:1028C0000E945916882341F0D80150968D929D920E
:1028D000AD92BC9253970BC020E030E040EA51E447
:1028E000D80150962D933D934D935C93539720E0E0
:1028F00030E0A901C701B6010E94441918167CF402
:10290000A7019601C301B2010E943B186B017C0133
:1029100020E030E0A9010E94591681110AC0F80197
:10292000148A158A168A178A108E118E128E138EAB
:102930006BC0D80150962D913D914D915C9153976C
:10294000C156DE4F288339834A835B83CF59D140F8
:10295000A7019601C701B6010E94CF174B015C0188
:1029600020910B0330910C0340910D0350910E0305
:10297000C156DE4F688179818A819B81CF59D140D0
:102980000E94BF16CD55DE4F688379838A839B836F
:10299000C35AD1409B01AC01C501B4010E94CF17BD
:1029A0006B017C01CD55DE4F288139814A815B81E5
:1029B000C35AD140C501B4010E94CE17A7019601A8
:1029C0000E943B18F801648B758B868B978B20E0F7
:1029D00030E040E050ECC301B2010E94BF16C15686
:1029E000DE4F288139814A815B81CF59D1400E94D5
:1029F000BF16A70196010E943B18D80158966D9307
:102A00007D938D939C935B9780E090E00E94C40C33
:102A10002091080530910905811113C02115310558
:102A200019F0C9010E94D41A1092090510920805E4
:102A300010920D0510920C0510920B0510920A05CC
:102A400009C010920D0510920C0565E871E0C901EE
:102A50000E943A1C109215020E94DA03DEC9029607
:102A60000E943B0696CD109247021092460288EED5
:102A700093E0A0E0B0E08093480290934902A093D5
:102A80004A02B0934B0283E691E090934502809313
:102A9000440285EC90E0909351028093500284ECC4
:102AA00090E0909353028093520280EC90E09093D8
:102AB00055028093540281EC90E0909357028093EA
:102AC000560282EC90E0909359028093580286EC73
:102AD00090E090935B0280935A0210925D021092F4
:102AE0005E0210925F021092600280910F058830A2
:102AF00030F48F5F80930F0580930E0502C0109213
:102B00000E05109209051092080510920B051092FF
:102B10000A0510920D0510920C0580E090E00E94CD
:102B2000C40C2091080530910905811113C02115AD
:102B3000310519F0C9010E94D41A109209051092AA
:102B4000080510920D0510920C0510920B051092BD
:102B50000A0509C010920D0510920C0565E871E098
:102B6000C9010E943A1C10922F0310922E0310925A
:102B7000310310923003EEE2F3E084E095E02AE0C6
:102B800030E032AB21ABBF968E179F07D1F7109282
:102B90002C0310922D031092010310920203109245
:102BA00003031092040385E791E090930003809360
:102BB000FF028DEC9CECACECBDE380930B03909397
:102BC0000C03A0930D03B0930E038AE999E9A9E1E0
:102BD000BFE380930F0390931003A0931103B0936E
:102BE000120380E190E00E943C1AFC0110821182E5
:102BF0001282138214821582168217821086118621
:102C000012861386148615861686178690930803F7
:102C1000809307038CE190E00E943C1AFC018AE05B
:102C200097EDA3EABBE380839183A283B3838FE60E
:102C300092E1A3E0BAE384839583A683B7831086E9
:102C400011861286138682E598EBAEE1BFE3848796
:102C50009587A687B787108A118A128A138A148AE1
:102C6000158A168A178A108E118E128E138EF09383
:102C70000603E09305038EE090E09093E2028093D8
:102C8000E1021092E3021092E4021092E502109227
:102C9000E6021092FC021092FB02E7EEF2E08BEFEC
:102CA00092E011921192119211928E179F07C9F71B
:102CB00008950E949B1608F481E00895E89409C0E5
:102CC00097FB3EF490958095709561957F4F8F4F5F
:102CD0009F4F9923A9F0F92F96E9BB279395F69575
:102CE000879577956795B795F111F8CFFAF4BB0FF3
:102CF00011F460FF1BC06F5F7F4F8F4F9F4F16C057
:102D0000882311F096E911C0772321F09EE8872FE0
:102D1000762F05C0662371F096E8862F70E060E09C
:102D20002AF09A95660F771F881FDAF7880F969515
:102D3000879597F90895990F0008550FAA0BE0E8B9
:102D4000FEEF16161706E807F907C0F0121613066D
:102D5000E407F50798F0621B730B840B950B39F4AD
:102D60000A2661F0232B242B252B21F408950A2613
:102D700009F4A140A6958FEF811D811D08950E9441
:102D8000D2160C9443170E94351738F00E943C1756
:102D900020F0952311F00C942C170C943217112469
:102DA0000C9477170E94541770F3959FC1F3950FF9
:102DB00050E0551F629FF001729FBB27F00DB11DBF
:102DC000639FAA27F00DB11DAA1F649F6627B00D4F
:102DD000A11D661F829F2227B00DA11D621F739F38
:102DE000B00DA11D621F839FA00D611D221F749F46
:102DF0003327A00D611D231F849F600D211D822F8D
:102E0000762F6A2F11249F5750409AF0F1F08823B3
:102E10004AF0EE0FFF1FBB1F661F771F881F9150E0
:102E20005040A9F79E3F510580F00C942C170C944C
:102E300077175F3FE4F3983ED4F3869577956795CF
:102E4000B795F795E7959F5FC1F7FE2B880F911D0A
:102E50009695879597F9089597F99F6780E870E0B0
:102E600060E008959FEF80EC089500240A94161600
:102E7000170618060906089500240A941216130668
:102E8000140605060895092E0394000C11F48823F6
:102E900052F0BB0F40F4BF2B11F460FF04C06F5F12
:102EA0007F4F8F4F9F4F089557FD9058440F551FE8
:102EB00059F05F3F71F04795880F97FB991F61F0BC
:102EC0009F3F79F087950895121613061406551F33
:102ED000F2CF4695F1DF08C0161617061806991F9F
:102EE000F1CF86957105610508940895E894BB2794
:102EF00066277727CB0197F908950E94BF17A59FF2
:102F0000900DB49F900DA49F800D911D11240895E4
:102F10002F923F924F925F926F927F928F929F92E9
:102F2000AF92BF92CF92DF92EF92FF920F931F93D7
:102F3000CF93DF93CDB7DEB7CA1BDB0B0FB6F89488
:102F4000DEBF0FBECDBF09942A88398848885F84C8
:102F50006E847D848C849B84AA84B984C884DF8039
:102F6000EE80FD800C811B81AA81B981CE0FD11D1D
:102F70000FB6F894DEBF0FBECDBFED010895A29F3E
:102F8000B001B39FC001A39F700D811D1124911D3D
:102F9000B29F700D811D1124911D08955058BB27BB
:102FA000AA270E94E6170C9443170E94351738F0A1
:102FB0000E943C1720F039F49F3F19F426F40C943A
:102FC00032170EF4E095E7FB0C942C17E92F0E94C2
:102FD000541758F3BA17620773078407950720F050
:102FE00079F4A6F50C9476170EF4E0950B2EBA2F13
:102FF000A02D0B01B90190010C01CA01A0011124FF
:10300000FF27591B99F0593F50F4503E68F11A16AA
:10301000F040A22F232F342F4427585FF3CF46953B
:1030200037952795A795F0405395C9F77EF41F165D
:10303000BA0B620B730B840BBAF09150A1F0FF0F27
:10304000BB1F661F771F881FC2F70EC0BA0F621F13
:10305000731F841F48F4879577956795B795F79503
:103060009E3F08F0B0CF9395880F08F09927EE0F98
:103070009795879508950E944F180C9443170E94C6
:103080003C1758F00E94351740F029F45F3F29F0B3
:103090000C942C1751110C9477170C9432170E9432
:1030A000541768F39923B1F3552391F3951B550BEE
:1030B000BB27AA2762177307840738F09F5F5F4F0B
:1030C000220F331F441FAA1FA9F335D00E2E3AF04A
:1030D000E0E832D091505040E695001CCAF72BD062
:1030E000FE2F29D0660F771F881FBB1F26173707B3
:1030F0004807AB07B0E809F0BB0B802DBF01FF27E5
:1031000093585F4F3AF09E3F510578F00C942C177E
:103110000C9477175F3FE4F3983ED4F38695779548
:103120006795B795F7959F5FC9F7880F911D96959D
:10313000879597F90895E1E0660F771F881FBB1FF9
:10314000621773078407BA0720F0621B730B840BA6
:10315000BA0BEE1F88F7E095089529F416F00C9449
:103160002C170C9476170C9432170E945C17A8F356
:103170009638A0F707F80F92E8942BE33AEA48EB69
:103180005FE70E94D5160F920F920F924DB75EB770
:103190000F920E948B19E8E7F0E00E941D194F91F1
:1031A0005F91EF91FF91E595EE1FFF1F49F0FE57EC
:1031B000E0684427EE0F441FFA95E1F74195550B5F
:1031C0000E9455190F9007FE0C94491908950E940A
:1031D000EE186894B1110C94771708950E945C174B
:1031E00088F09F5798F0B92F9927B751B0F0E1F0C8
:1031F000660F771F881F991F1AF0BA95C9F714C078
:10320000B13091F00E947617B1E008950C947617D2
:10321000672F782F8827B85F39F0B93FCCF38695B0
:1032200077956795B395D9F73EF49095809570950D
:1032300061957F4F8F4F9F4F0895DF93CF931F93DB
:103240000F93FF92EF92DF927B018C01689406C08E
:10325000DA2EEF010E94D216FE01E894A591259185
:10326000359145915591A6F3EF010E94E617FE01B5
:103270009701A801DA9469F7DF90EF90FF900F9122
:103280001F91CF91DF9108950E949B1608F48FEF54
:1032900008959B01AC0160E070E080E89FE30C942E
:1032A0003B180C942C170C94BF190E945C17D8F390
:1032B0009923C9F3940F511DA3F39150504094F0FA
:1032C00059F0882332F0660F771F881F91505040C5
:1032D000C1F79E3F51052CF7880F911D9695879554
:1032E00097F908955F3FACF0983E9CF0BB27869518
:1032F00077956795B79508F4B1609395C1F7BB0FC3
:1033000058F711F460FFE8CF6F5F7F4F8F4F9F4FEB
:10331000E3CF0C947717FA01DC01AA0FBB1F9B01C6
:10332000AC01BF5728F4222733274427507820C008
:10333000B75190F4AB2F0024469537952795011C83
:10334000A395D2F3002071F0220F331F441FB395D1
:10335000DAF30ED00C94CE1761307105A0E88A071D
:10336000B94630F49B01AC0166277727882790780F
:10337000309621F0208331834283538308959F3F09
:1033800031F0915020F4879577956795B795880F20
:10339000911D9695879597F9089597FB072E16F43A
:1033A000009407D077FD09D00E94281A07FC05D0A9
:1033B0003EF4909581959F4F0895709561957F4F4C
:1033C0000895A1E21A2EAA1BBB1BFD010DC0AA1F66
:1033D000BB1FEE1FFF1FA217B307E407F50720F07E
:1033E000A21BB30BE40BF50B661F771F881F991FF9
:1033F0001A9469F760957095809590959B01AC0142
:10340000BD01CF010895052E97FB1EF400940E9484
:103410001A1A57FD07D00E94E11907FC03D04EF499
:103420000C941A1A50954095309521953F4F4F4F67
:103430005F4F089590958095709561957F4F8F4F60
:103440009F4F0895EE0FFF1F0590F491E02D099412
:10345000AA1BBB1B51E107C0AA1FBB1FA617B707BA
:1034600010F0A61BB70B881F991F5A95A9F78095D6
:103470009095BC01CD0108950F931F93CF93DF93D7
:103480008230910510F482E090E0E0911205F09115
:10349000130520E030E0A0E0B0E0309719F1408162
:1034A00051810281138148175907C8F08417950785
:1034B00069F4109731F012960C93129713961C939F
:1034C00027C0009312051093130522C02115310562
:1034D00019F04217530718F49A01BD01EF01DF01FB
:1034E000F801DBCF21153105F9F0281B390B243009
:1034F000310580F48A819B816115710521F0FB0102
:103500009383828304C09093130580931205FE0178
:10351000329644C0FE01E20FF31F81939193225033
:103520003109398328833AC0209110053091110563
:10353000232B41F420910D0130910E0130931105A0
:103540002093100520910B0130910C0121153105BC
:1035500041F42DB73EB740910F0150911001241B4B
:10356000350BE0911005F0911105E217F307A0F477
:103570002E1B3F0B2817390778F0AC014E5F5F4FC9
:103580002417350748F04E0F5F1F509311054093E5
:1035900010058193919302C0E0E0F0E0CF01DF914C
:1035A000CF911F910F910895CF93DF93009709F466
:1035B00081C0FC01329713821282A0911205B09152
:1035C0001305109781F420813181820F931F209180
:1035D0001005309111052817390751F5F0931105A1
:1035E000E093100567C0ED0120E030E0CE17DF0763
:1035F00040F44A815B819E0141155105F1F0EA01D9
:10360000F5CFD383C28340815181840F951FC817A2
:10361000D90759F488819981840F951F0296918367
:1036200080838A819B81938382832115310529F4CC
:10363000F0931305E09312053DC0E901FB83EA8393
:1036400049915991C40FD51FEC17FD0761F4808192
:103650009181840F951F0296E90199838883828165
:1036600093819B838A83E0E0F0E012968D919C9198
:103670001397009719F0FD01DC01F7CF8D919C9114
:1036800011979D012E5F3F4F820F931F20911005D0
:10369000309111052817390769F4309729F41092F1
:1036A00013051092120502C013821282B093110505
:1036B000A0931005DF91CF910895A0E0B0E0E3E67C
:1036C000FBE10C948C17EC01009721F4CB010E94D4
:1036D0003C1AB4C0FC01E60FF71F9C0122503109CF
:1036E000E217F30708F4A8C0D9010D911C911197B6
:1036F00006171707B0F00530110508F49BC0C80184
:1037000004978617970708F495C002501109061B05
:10371000170B019311936D937C93CF010E94D41AE0
:1037200089C05B01A01AB10A4C01800E911EA091C4
:103730001205B0911305612C712CE12CF12C10971E
:1037400009F446C08D919C911197A815B905B1F562
:103750006C0142E0C40ED11CCA14DB0478F14C01A8
:103760008A189B08640142E0C40ED11C1296BC90DA
:1037700012971396AC91B5E0CB16D10440F0B2820B
:10378000A38391828082D9016D937C9309C00E5FDF
:103790001F4F800F911FF90191838083EB2DFA2F2A
:1037A000E114F10431F0D7011396FC93EE931297D4
:1037B00041C0F0931305E09312053CC068167906EA
:1037C00008F43C017D0112960D90BC91A02DB7CF5D
:1037D000809110059091110588169906E1F46616FE
:1037E0007706C8F480910B0190910C01009741F489
:1037F0008DB79EB740910F0150911001841B950B1E
:10380000E817F907C8F4F0931105E0931005F901E2
:10381000718360830FC0CB010E943C1A7C0100972A
:1038200059F0A801BE010E94281CCE010E94D41AA2
:10383000C70104C0CE0102C080E090E0CDB7DEB782
:10384000EEE00C94A81781E090E0F8940C94501CE2
:10385000FB01DC0102C001900D9241505040D8F7AD
:103860000895FB01DC018D91019080190110D9F3BD
:10387000990B0895FB01DC0101900D920020E1F706
:103880000895FB01DC014150504048F001900D9239
:103890000020C9F701C01D9241505040E0F7089543
:1038A00010E0C9E7D0E004C0FE010E94221A219670
:0A38B000CA37D107C9F7F894FFCF1B
:1038BA000E00000000000000803F010000140520F7
:1038CA00000000803FCDCCCC3D6F12833A95BFD625
:1038DA00337D1D9026B3CE010CCDCCCC3D0AD72327
:1038EA003C17B7D13877CC2B329595E6241FB14FC8
:1038FA000A000020410000C84200401C4620BCBE0D
:10390A004CCA1B0E5AAEC59D7400000000FD020091
:10391A000000003B01A400D20088010301E100F588
:10392A000000000000BF0122225C5C6208660C6E87
:10393A000A720D7409006E756C6C007472756500FC
:10394A0066616C7365004E614E00652D00496E66B6
:10395A00696E6974790074696D657374616D70005C
:10396A00636F6E74726F6C6C6572000D0A0073651A
:10397A0074706F696E7400706172616D7300736543
:10398A0072766F0064697374007500657874657285
:0E399A006E005473656E736F7200737263007B
:00000001FF
